:100000000C94A2000C94CA000C94CA000C94CA0070
:100010000C94CA000C94CA000C94CA000C94CA0038
:100020000C94CA000C94CA000C94CA000C944E079D
:100030000C94CA000C94CA000C94CA000C94CA0018
:100040000C942C0A0C94CA000C942A0C0C946D0C81
:100050000C94CA000C94CA000C94CA000C94CA00F8
:100060000C94CA000C94CA009403D702E002E9027F
:10007000F202FE0206032A034A037403084AD73B2E
:100080003BCE016E84BCBFFDC12F3D6C74319ABD67
:1000900056833DDA3D00C77F11BED9E4BB4C3E918B
:1000A0006BAAAABE000000803F072C7AA5BA6CC5D7
:1000B00090DA3B9365FC8BBC53F810FD3C56928361
:1000C0004DBD879D3AB63DCBC9BF5BBE73DA0FC944
:1000D0003F05A84CCDB2D44EB93836A9020C50B960
:1000E000918688083CA6AAAA2ABE000000803F008C
:1000F00000000700020100000304060000000000E9
:1001000000000001020408102040800102040810D1
:10011000200102040810200404040404040404025E
:10012000020202020203030303030300000000258E
:100130000028002B0000000000240027002A0000F7
:10014000B503290D11241FBECFEFD8E0DEBFCDBF10
:1001500014E0A0E0B1E0E0E6F7E202C005900D9205
:10016000AE31B107D9F715E0AEE1B4E001C01D92A0
:10017000A733B107E1F711E0C4E4D1E004C022974E
:10018000FE010E949013C034D107C9F70E94DB0F13
:100190000C94AE130C94000040E05BE460E070E06F
:1001A0008DE894E00E94A80C6BE071E08DE894E08B
:1001B0000E94210E80E294E00E94340460E271E02B
:1001C0008DE894E00E94210E64EF71E080E090E001
:1001D0000E94990A6AE271E08DE894E00C94210E85
:1001E00060E371E08DE894E00E94040E6BE080E231
:1001F00094E00E9401074AE050E0BC018DE894E0E1
:100200000E94D60E69E371E08DE894E00E94040E2E
:100210006DE080E294E00E9401074AE050E0BC01FA
:100220008DE894E00E94D60E62E471E08DE894E0DF
:100230000E94040E68E080E294E00E9401074AE018
:1002400050E0BC018DE894E00C94D60EEF92FF9242
:100250000F931F93E12CF12C00E010E09801B901FD
:10026000A80180E294E00E9456041F910F91FF9034
:10027000EF900895EF92FF920F931F936DE471E05A
:100280008DE894E00E94210E68EB7BE080E090E036
:100290000E94990AE12CF12C00E010E0980140E066
:1002A00050E068EC72E480E294E00E94560480E240
:1002B00094E00E94F3056AE571E08DE894E00E9405
:1002C000210E68EB7BE080E090E00E94990A00E05C
:1002D00010E028E432E440E050E068EC72E480E2B0
:1002E00094E00E94560480E294E00E94F30561E6E7
:1002F00071E08DE894E00E94210E68EB7BE080E0E5
:1003000090E00E94990A00E010E09801B901A8016C
:1003100080E294E00E94560480E294E00E94F3059B
:1003200068EE73E080E090E01F910F91FF90EF90F6
:100330000C94990ACF93DF9364EF71E080E090E032
:100340000E94990ACCE5D0E04AE050E0BE018DE879
:1003500094E00E94D60EBE01882777FD8095982FE5
:100360000E9425119B01AC016BE080E294E00E94A9
:10037000CF066FE070E080E090E00E94990A21973C
:10038000209711F768EE73E080E090E00E94990AF0
:10039000C1E0D0E04AE050E0BE018DE894E00E9468
:1003A000D60EBE01882777FD8095982F0E942511D3
:1003B0009B01AC016BE080E294E00E94CF066FE00D
:1003C00070E080E090E00E94990A2196C436D10541
:1003D00009F7DF91CF9108950F931F93CF93DF9388
:1003E00064EF71E080E090E00E94990AC8E7D0E0F5
:1003F000C931D1053CF08E01C937D1052CF008E791
:1004000010E002C009E110E06BE080E294E00E949D
:1004100001078A5591090817190744F46BE080E237
:1004200094E00E9401078C010A5511094AE050E04E
:10043000B8018DE894E00E94D60EBE01882777FDB2
:100440008095982F0E9425119B01AC016DE080E200
:1004500094E00E94CF066FE070E080E090E00E94A0
:10046000990A2197209721F668EE73E080E090E0EA
:100470000E94990AC0E0D0E04AE050E0BE018DE859
:1004800094E00E94D60EBE01882777FD8095982FB4
:100490000E9425119B01AC016DE080E294E00E9476
:1004A000CF066FE070E080E090E00E94990A21960C
:1004B000C837D10509F7DF91CF911F910F910895AA
:1004C000CF93DF9364EF71E080E090E00E94990A9F
:1004D000CAE5D0E04AE050E0BE018DE894E00E9419
:1004E000D60EBE01882777FD8095982F0E94251192
:1004F0009B01AC0168E080E294E00E94CF066FE0CF
:1005000070E080E090E00E94990A2196C03AD105FF
:1005100009F760E771E08DE894E00E94210E68EE33
:1005200073E080E090E00E94990AC0EAD0E04AE0DF
:1005300050E0BE018DE894E00E94D60EBE018827EF
:1005400077FD8095982F0E9425119B01AC0168E0F2
:1005500080E294E00E94CF066FE070E080E090E0DF
:100560000E94990A2197C331D10509F764EF71E020
:1005700080E090E00E94990A20E030E044EB52E4F1
:1005800068E080E294E00E94CF0664EF71E080E0D2
:1005900090E0DF91CF910C94990AC0978A30910531
:1005A00008F0DDC08C5C9F4FFC010C948E136CE74F
:1005B00071E08DE894E00E94210E0E949A011AC019
:1005C00065E871E08DE894E00E94210E0E946002CF
:1005D00011C060E971E08DE894E00E94210E0E9454
:1005E000EC0108C069E971E08DE894E00E94210EF9
:1005F0000E943A0181E080930601089560EA71E06B
:100600008DE894E00E94210E0C9426016BEA71E0C3
:100610008DE894E00E94210E0E94F0008091040178
:1006200090910501019731F462EB71E08DE894E05F
:100630000E94210E8091040190910501019631F4F0
:1006400062EC71E08DE894E00E94210E80E294E07B
:100650000C94F3056BE080E294E00E940107609146
:10066000040170910501680F791F882777FD809537
:10067000982F0E9425119B01AC016BE080E294E071
:100680000E94CF0669ED71E08DE894E00E94040EAF
:100690006BE01FC068E080E294E00E940107609177
:1006A000040170910501680F791F882777FD8095F7
:1006B000982F0E9425119B01AC0168E080E294E034
:1006C0000E94CF066EEE71E08DE894E00E94040E69
:1006D00068E080E294E00E9401074AE050E0BC013B
:1006E0008DE894E00C94D60E6DE080E294E00E94D8
:1006F00001076091040170910501680F791F882737
:1007000077FD8095982F0E9425119B01AC016DE02B
:1007100080E294E00E94CF0665E072E08DE894E00C
:100720000E94040E6DE0D5CF8091040190910501E7
:100730008130910549F48FEF9FEF909305018093ED
:1007400004016AE172E00DC0019649F481E090E095
:10075000909305018093040166E372E002C06BE4AC
:1007600072E08DE894E00C94210E80E294E00C9409
:100770001B0410921F0410921E048091060188230E
:1007800009F444C06AE772E08DE894E00E94210E0B
:1007900064E872E08DE894E00E94210E69E972E05D
:1007A0008DE894E00E94210E6EEA72E08DE894E0FC
:1007B0000E94210E65EC72E08DE894E00E94210E0B
:1007C00067ED72E08DE894E00E94210E62EF72E026
:1007D0008DE894E00E94210E6AE073E08DE894E0D9
:1007E0000E94210E6FE273E08DE894E00E94210EDA
:1007F00068E573E08DE894E00E94210E6EE773E0F7
:100800008DE894E00E94210E109206018DE894E09C
:100810000E94920B892B71F080E294E00E941507F0
:100820008DE894E00E94BF0B90931F0480931E04F8
:100830000C94CD020895CF93DF93EC0108960E94AB
:100840009108CE010E960E949108CE0144960E9416
:100850009108198218821B821A821D821C821F82B3
:100860001E82DF91CF910895CF93DF93EC012CEF9F
:1008700038E04CEB52E06DE070E008960E94B00862
:100880002CEF38E04CEB52E06BE070E0CE010E96BE
:100890000E94B0082CEF38E04CEB52E068E070E0CA
:1008A000CE014496DF91CF910C94B0082F923F92E5
:1008B0004F925F926F927F928F929F92AF92BF9270
:1008C000CF92DF92EF92FF920F931F93CF93DF931C
:1008D00000D000D000D0CDB7DEB71C012A013B010B
:1008E00048015901F194E194F10820E030E0A901B8
:1008F000C301B2010E94831087FD15C020E030E0E3
:1009000042E553E4C301B2010E944E12181694F05E
:1009100020E030E04CE552E4C301B2010E94F70F41
:100920002B013C010EC0412C512C5CE5652E52E49C
:10093000752E07C0412C40E8542E44E8642E43E451
:10094000742E20E030E044E353ECC501B4010E9472
:10095000831087FD11C020E030E046E153E4C5017B
:10096000B4010E944E1218166CF4812C912C36E1C1
:10097000A32E33E4B32E06C0812C912C24E3A22EA7
:1009800023ECB22E26EAE2162FEFF20664F0C7013E
:100990008B35910514F08AE590E0FC01E65AFF4F93
:1009A000FE83ED8302C01E821D82A3019201C3015A
:1009B000B2010E9459126B017C01A5019401C5018D
:1009C000B4010E9459129B01AC01C701B6010E94FB
:1009D000F70F6B017C0120E030E949E357E40E9406
:1009E000F60F20E030E049E357E40E948A100E94AD
:1009F000E80F69837A838B839C83A3019201C501ED
:100A0000B4010E948A100E945B1021EE3EE245E68E
:100A100052E40E9459122B013C01C701B6010E9409
:100A2000C6124B015C0120E030E24BEA56E4C701FC
:100A3000B6010E94F70F20E030E048EC56E40E9437
:100A4000F60F6B017C0120E030E044E953E4C5017E
:100A5000B4010E9459129B01AC01C701B6010E946A
:100A60008A100E94E80F21EE3EE245E652E40E9421
:100A700059126B017C019B01AC01C301B2010E94C0
:100A8000F70F20E030E040EA50E40E94F60F0E94A9
:100A9000F2104B015C018B0121EE3EE245E652E48F
:100AA00069817A818B819C810E945912A3019201F4
:100AB0000E94F60FA70196010E94F60F20E030E099
:100AC00040E751E40E94F60F0E94F2109B010F30A4
:100AD000110544F0F0E68F1691043CF09FE5892E55
:100AE000912C03C08FE0882E912C2832310534F0F0
:100AF000663A71052CF065EA70E002C068E270E0C9
:100B0000C4018A5591098B01681779070CF48C018F
:100B1000B801C10108960E945F09B801882777FDD6
:100B20008095982F0E94990AB401C1010E960E94E7
:100B30005F09B401882777FD8095982F0E94990A54
:100B40006D817E81C10144960E945F092D813E81A5
:100B5000B901882777FD8095982F0E94990A62EB4A
:100B600073E08DE894E00E94040EB40165507109B1
:100B70004AE050E08DE894E00E94D60E6BEB73E003
:100B80008DE894E00E94040EB8016F5071094AE0AC
:100B900050E08DE894E00E94D60E64EC73E08DE89E
:100BA00094E00E94040E4AE050E06D817E818DE861
:100BB00094E026960FB6F894DEBF0FBECDBFDF914E
:100BC000CF911F910F91FF90EF90DF90CF90BF904A
:100BD000AF909F908F907F906F905F904F903F90DD
:100BE0002F900C94D60E4F925F926F927F928F92BD
:100BF0009F92AF92BF92CF92DF92EF92FF920F93AC
:100C00001F93CF93DF9300D000D0CDB7DEB73C0168
:100C10000E960E94E0090597BC01882777FD809514
:100C2000982F0E94251125E33AEF4EE85CE30E94DD
:100C300059124B015C01C30108960E94E0090F970D
:100C4000BC01882777FD8095982F0E94251125E308
:100C50003AEF4EE85CE30E9459126B017C01C3013C
:100C600044960E94E0098C01C501B4010E948710DE
:100C70002B013C01C701B6010E94871069837A836A
:100C80008B839C8320E030E044E153E4C301B20154
:100C90000E9459122B013C0120E030E040E253E475
:100CA00069817A818B819C810E9459129B01AC01E0
:100CB000C301B2010E94F70F2B013C01C501B40131
:100CC0000E94BC124B015C01C701B6010E94BC121C
:100CD0006B017C0120E030E044E153E4C501B40144
:100CE0000E9459124B015C0120E030E040E253E4E5
:100CF000C701B6010E9459129B01AC01C501B401A4
:100D00000E94F60F6B017C016FEC73E08DE894E0BC
:100D10000E94040E22E030E0B301A2018DE894E0CD
:100D20000E94D90F63EE73E08DE894E00E94040EF8
:100D300022E030E0B701A6018DE894E00E94D90FCF
:100D400063EE73E08DE894E00E94040EB8018827FA
:100D500077FD8095982F0E942511AB01BC0122E000
:100D600030E08DE894E00E94D90F66EE73E08DE8E4
:100D700094E00F900F900F900F90DF91CF911F9103
:100D80000F91FF90EF90DF90CF90BF90AF909F902A
:100D90008F907F906F905F904F900C94210ECF9327
:100DA000DF93EC01E62FCA01B901EB3049F0ED30D9
:100DB00091F0E830F1F40E94F210CE01449615C093
:100DC00020E030E040EA50E40E94F70F0E94F21069
:100DD000CE010E960AC020E030E040E751E40E94C8
:100DE000F70F0E94F210CE010896DF91CF910C947C
:100DF0005F0968EE73E08DE894E0DF91CF910C9489
:100E0000210E6B3039F06D3051F0683069F4449642
:100E10000C94E0090E960E94E00905970895089643
:100E20000E94E0090F9708950895CF93DF93EC0196
:100E30000E960E94E0090597BC01882777FD8095F2
:100E4000982F0E9425119B01AC016BE0CE010E94FE
:100E5000CF06CE0108960E94E0090F97BC018827B3
:100E600077FD8095982F0E9425119B01AC016DE0C4
:100E7000CE010E94CF06CE0144960E94E009BC013B
:100E8000882777FD8095982F0E9425119B01AC0142
:100E900068E0CE01DF91CF910C94CF061F920F92A4
:100EA0000FB60F9211242F933F934F935F936F933D
:100EB0007F938F939F93AF93BF93CF93DF93EF93E2
:100EC000FF9380913B0487FF05C01092850010922C
:100ED000840016C020913B04332727FD3095809174
:100EE0003A0490E0281739075CF430913B0426E07F
:100EF0003203D0011124A45CBB4F8C9186FD15C038
:100F000080913B048F5F80933B0420913B04332707
:100F100027FD309580913A0490E02817390794F422
:100F200080913B048C302CF10DC030913B04320396
:100F3000F0011124E45CFB4F808160E08F730E941C
:100F40005C0BDECF809184009091850084349C49B5
:100F500018F480E49CE905C080918400909185009C
:100F6000049690938900809388008FEF80933B04D0
:100F7000C5C030913B0426E03203F0011124E45C4B
:100F8000FB4F8581882309F48DC040913B0430914B
:100F90003B044203D0011124A45CBB4F3203F00197
:100FA0001124E45CFB4F13964D915C911497818161
:100FB000928130913B048417950768F540913B047A
:100FC0004203F0011124E45CFB4F3203D0011124F1
:100FD000A45CBB4F15963C9181819281830F911D3A
:100FE0009283818340913B0430913B044203E001B2
:100FF0001124C45CDB4F3203D0011124A45CBB4F2D
:101000004B815C8111968D919C9112978417950765
:1010100008F448C02BC040913B044203F001112466
:10102000E45CFB4F3203D0011124A45CBB4F159646
:101030003C9181819281831B9109928381834091AC
:101040003B0430913B044203E0011124C45CDB4FBC
:101050003203D0011124A45CBB4F4B815C811196FB
:101060008D919C91129748175907E0F030913B04FD
:1010700040913B044203E0011124C45CDB4F8B81AF
:101080009C813203D0011124A45CBB4F12969C9327
:101090008E93119730913B043203F0011124E45CEC
:1010A000FB4F1582809184009091850020913B0434
:1010B00046E02403D0011124A45CBB4F11962D916E
:1010C0003C911297820F931F909389008093880020
:1010D00020913B042403D0011124A45CBB4F8C91CC
:1010E00086FF0CC020913B042403F0011124E45C32
:1010F000FB4F808161E08F730E945C0BFF91EF9149
:10110000DF91CF91BF91AF919F918F917F916F911F
:101110005F914F913F912F910F900FBE0F901F90B5
:101120001895FC01A0913A04AC30B8F481E08A0F24
:1011300080933A04A08386E0A89FD0011124A45C88
:10114000BB4F88EB9BE012969C938E931197158270
:1011500087E091E09483838308958FEF80830895DF
:10116000DF92EF92FF920F931F93CF93DF93EC01E7
:10117000D62E7A01890188818C3008F062C061E046
:101180008D2D0E94230B888196E0899FF001112408
:10119000E45CFB4F2D2D2F739081907C922B9083DC
:1011A0006CEB72E06E197F0977FF02C06D5F7F4FB5
:1011B000759567957595679569834CEF58E0401B69
:1011C000510B57FF02C04D5F5F4F559547955595A1
:1011D00047954A836CE00E9441139CE0899FA001DF
:1011E000112420E030E096E0B901640F751F969F4E
:1011F000F001979FF00D1124E45CFB4F608166FDC8
:1012000016C02F5F3F4F2C30310571F781110FC091
:101210001092800082E080938100109285001092ED
:101220008400B19A80916F00826080936F00E881A2
:1012300086E0E89FF0011124E45CFB4F808180642C
:1012400080838881DF91CF911F910F91FF90EF9064
:10125000DF900895DC01EC91EC3080F511968C91D3
:1012600011972FEA30E0281B310987FD3395220FB3
:10127000331F220F331F6217730784F012968C916D
:101280002FE332E0281B310987FD3395220F331FEE
:10129000220F331F621773070CF49B018FB7F8946A
:1012A00096E0E99FF0011124E45CFB4F22503109E4
:1012B000220F331F328321838FBF158208954F92EF
:1012C0005F926F927F92AF92BF92CF92DF92EF9236
:1012D000FF920F931F93CF93DF93EC016C3B82E05F
:1012E00078070CF041C0653B710514F064EB70E0C9
:1012F00089812FEA30E0281B310987FD3395220FC1
:10130000331F220F331F5901CC24B7FCC094DC2CAF
:101310002B0177FF02C0412C512CB201882777FDA9
:101320008095982F2A814FE352E0421B510927FDF7
:101330005395440F551F440F551F2A01662457FC2F
:101340006094762C7F926F925F924F9214EBE12E15
:10135000F12C00E010E020E030E0A9010E947F0DB8
:101360000F900F900F900F90CE01DF91CF911F91B2
:101370000F91FF90EF90DF90CF90BF90AF907F9054
:101380006F905F904F900C942A09DC01EC91EF3F35
:10139000A1F0B6E0EB9FF0011124E45CFB4F8181EA
:1013A000928163E0880F991F6A95E1F774E0969542
:1013B00087957A95E1F70296089580E090E0089588
:1013C000AF92BF92CF92DF92EF92FF920F931F9353
:1013D000CF93DF93EC010E94C5092A814FE352E0CD
:1013E000421B510927FD5395440F551F440F551FAC
:1013F0007A010027F7FC0095102F49812FEA30E091
:10140000241B310947FD3395220F331F220F331F51
:10141000442737FD4095542F0196BC01882777FD5E
:101420008095982F1F921F921F92E4EBEF93A12CAF
:10143000B12C65010E947F0D0F900F900F900F90BF
:10144000CB01DF91CF911F910F91FF90EF90DF9033
:10145000CF90BF90AF9008951F920F920FB60F924A
:1014600011242F933F938F939F93AF93BF938091BA
:10147000850490918604A0918704B09188043091EE
:10148000840423E0230F2D3720F40196A11DB11D04
:1014900005C026E8230F0296A11DB11D20938404E8
:1014A0008093850490938604A0938704B093880466
:1014B0008091890490918A04A0918B04B0918C044E
:1014C0000196A11DB11D8093890490938A04A09375
:1014D0008B04B0938C04BF91AF919F918F913F91FA
:1014E0002F910F900FBE0F901F9018953FB7F89453
:1014F0008091890490918A04A0918B04B0918C040E
:1015000026B5A89B05C02F3F19F00196A11DB11D5E
:101510003FBF6627782F892F9A2F620F711D811D7B
:10152000911D42E0660F771F881F991F4A95D1F7DA
:101530000895CF92DF92EF92FF92CF93DF936B01EA
:101540007C010E94760AEB01C114D104E104F1048C
:1015500079F00E94760A6C1B7D0B683E7340A0F305
:1015600081E0C81AD108E108F108C851DC4FECCF7E
:10157000DF91CF91FF90EF90DF90CF900895789416
:1015800084B5826084BD84B5816084BD85B5826088
:1015900085BD85B5816085BDEEE6F0E08081816026
:1015A0008083E1E8F0E01082808182608083808126
:1015B00081608083E0E8F0E0808181608083E1EBFE
:1015C000F0E0808184608083E0EBF0E080818160E6
:1015D0008083EAE7F0E0808184608083808182609C
:1015E0008083808181608083808180688083109285
:1015F000C1000895833081F028F4813099F0823061
:10160000A1F008958630A9F08730B9F08430D1F484
:10161000809180008F7D03C0809180008F778093C0
:101620008000089584B58F7702C084B58F7D84BD16
:1016300008958091B0008F7703C08091B0008F7DB6
:101640008093B0000895CF93DF9390E0FC01ED5FAD
:10165000FE4F2491FC01E95EFE4F8491882349F1FD
:1016600090E0880F991FFC01EB5CFE4FA591B491AF
:10167000855D9E4FFC01C591D4919FB7611108C053
:10168000F8948C91209582238C93888182230AC0C0
:10169000623051F4F8948C91322F309583238C93DF
:1016A0008881822B888304C0F8948C91822B8C9340
:1016B0009FBFDF91CF9108950F931F93CF93DF9337
:1016C0001F92CDB7DEB7282F30E0F901E151FF4F6F
:1016D0008491F901ED5FFE4F1491F901E95EFE4F2F
:1016E00004910023C9F0882321F069830E94FA0A3B
:1016F0006981E02FF0E0EE0FFF1FE55DFE4FA59141
:10170000B4919FB7F8948C91611103C01095812317
:1017100001C0812B8C939FBF0F90DF91CF911F91C0
:101720000F910895FC0124853585F901E05CFF4F98
:1017300080819181F901EE5BFF4F20813181821B15
:10174000930B8F7399270895FC0184859585FC017F
:10175000E05CFF4F40815181FC01EE5BFF4F208137
:1017600031814217530741F00190F081E02DE80FDD
:10177000F91F808190E008958FEF9FEF0895FC019D
:1017800084859585FC01E05CFF4F40815181FC011F
:10179000EE5BFF4F208131814217530779F0A08122
:1017A000B181A80FB91F8C91208131812F5F3F4FEC
:1017B0002F7333273183208390E008958FEF9FEFBD
:1017C0000895FC0181A1882329F0A489B5898C9111
:1017D00086FFFBCF11A20895CF93DF93FC012685EE
:1017E0003785D901A05CBF4F8D919C9111970196CF
:1017F0008F739927E901CE5BDF4F488159818417A8
:101800009507D9F30D90BC91A02DA20FB31F6C9337
:10181000A685B785A05CBF4F11969C938E93A68931
:10182000B7892C9181E090E0078C02C0880F991F46
:101830000A94E2F7282B2C9381E081A30488F58990
:10184000E02D80818064808381E090E0DF91CF9102
:10185000089508951F920F920FB60F9211242F939F
:101860003F934F938F939F93EF93FF938091C0008B
:1018700082FD1CC04091C6008091330590913405D3
:1018800001968F739927209135053091360582177F
:10189000930771F0E0913305F0913405ED50FB4F63
:1018A0004083909334058093330502C08091C60035
:1018B000FF91EF919F918F914F913F912F910F90B9
:1018C0000FBE0F901F9018958DE894E00E94920B28
:1018D000892B11F00C94290C08951F920F920FB6CA
:1018E0000F9211242F933F938F939F93EF93FF9326
:1018F0002091EF043091F0048091F1049091F20472
:101900002817390731F48091C1008F7D8093C10081
:1019100014C0E091F104F091F204E155FB4F2081F5
:101920008091F1049091F20401968F73992790931E
:10193000F2048093F1042093C600FF91EF919F91F0
:101940008F913F912F910F900FBE0F901F90189580
:10195000CF92DF92EF92FF92CF93DF93EC016A0177
:101960007B01411581EE580761057105F9F0EC899D
:10197000FD8981E090E008A002C0880F991F0A94B9
:10198000E2F7808360E079E08DE390E0A7019601C3
:101990000E944D132150310941095109569547952F
:1019A00037952795211580E1380798F0EC89FD8956
:1019B000108260E874E88EE190E0A70196010E9431
:1019C0004D132150310941095109569547953795D5
:1019D0002795E889F9893083EA89FB89208319A250
:1019E000EE89FF89408181E090E09C010C8C02C06F
:1019F000220F331F0A94E2F7422B4083EE89FF89BE
:101A000040819C010D8C02C0220F331F0A94E2F723
:101A1000422B4083EE89FF8940819C010E8C02C0DD
:101A2000220F331F0A94E2F7422B4083EE89FF898D
:101A300020810F8C02C0880F991F0A94E2F78095CD
:101A400082238083DF91CF91FF90EF90DF90CF9042
:101A500008951092900410928F0488EE93E0A0E015
:101A6000B0E08093910490939204A0939304B09378
:101A7000940485E094E090938E0480938D0483EF2A
:101A800094E090939A04809399048FEA94E0909361
:101A90009C0480939B0485EC90E090939E0480933B
:101AA0009D0484EC90E09093A00480939F0480ECCC
:101AB00090E09093A2048093A10481EC90E0909335
:101AC000A4048093A30482EC90E09093A6048093F6
:101AD000A50486EC90E09093A8048093A70484E08A
:101AE0008093A90483E08093AA0487E08093AB04E9
:101AF00085E08093AC0481E08093AD0408954F921B
:101B00005F926F927F92AF92BF92CF92DF92EF92ED
:101B1000FF920F931F93CF93DF93CDB7DEB72901C9
:101B20003A01621B730B840B950B29893A894B8907
:101B30005C892A193B094C095D09298B3A8B4B8B2F
:101B40005C8B9B01AC0169897A898B899C890E9495
:101B50003113E418F50806091709A80197010E9436
:101B60006F132A0D3B1D4C1D5D1DCA01B901DF918C
:101B7000CF911F910F91FF90EF90DF90CF90BF908A
:101B8000AF907F906F905F904F900895CF92DF92CB
:101B9000EF92FF920F931F93CF93DF936C017A0123
:101BA000EB01E60EF71E00E010E0CE15DF0561F058
:101BB0006991D601ED91FC910190F081E02DC60173
:101BC0000995080F191FF1CFC801DF91CF911F911F
:101BD0000F91FF90EF90DF90CF9008956115710500
:101BE00081F0DB010D900020E9F7AD014150510972
:101BF000461B570BDC01ED91FC910280F381E02D37
:101C0000099480E090E008950C94EE0DDC01ED91D4
:101C1000FC910190F081E02D09940F931F93CF93D5
:101C2000DF93EC016DE00E94060E8C016AE0CE01AC
:101C30000E94060E800F911FDF91CF911F910F918F
:101C400008950F931F93CF93DF93EC010E94EE0D45
:101C50008C01CE010E940D0E800F911FDF91CF915C
:101C60001F910F9108958F929F92AF92BF92CF9242
:101C7000DF92EF92FF920F931F93CF93DF93CDB735
:101C8000DEB7A1970FB6F894DEBF0FBECDBF7C01C3
:101C9000C42EE52FCB01D22E19A221E02D1510F074
:101CA0002AE0D22E8E010F5D1F4F8D2C912CA12C7E
:101CB000B12C6C2D7E2FA50194010E944D138C2D0B
:101CC000D29E80191124015011098A3014F4805DCC
:101CD00001C0895CF801808321153105410551055A
:101CE00021F0C22EE32FCA01E4CFB801C7010E9440
:101CF000EE0DA1960FB6F894DEBF0FBECDBFDF91FB
:101D0000CF911F910F91FF90EF90DF90CF90BF90F8
:101D1000AF909F908F900895CF92DF92EF92FF92B5
:101D20000F931F93CF93DF93EC016A017B01211581
:101D3000310579F4E881F9810190F081E02D642F7B
:101D4000DF91CF911F910F91FF90EF90DF90CF9097
:101D500009942A303105E9F477FF1AC06DE20E9438
:101D6000060E8C0144275527BA014C195D096E09EE
:101D70007F092AE0CE010E94330E800F911FDF9170
:101D8000CF911F910F91FF90EF90DF90CF9008952A
:101D90002AE0B701A601CE01DF91CF911F910F91EB
:101DA000FF90EF90DF90CF900C94330E0F931F9322
:101DB000CF93DF93EC019A01AB01662757FD609545
:101DC000762F0E948C0E8C01CE010E940D0E800F8A
:101DD000911FDF91CF911F910F9108954F925F92C4
:101DE0006F927F928F929F92AF92BF92CF92DF922B
:101DF000EF92FF920F931F93CF93DF93EC016A0151
:101E00007B01B22E9A01AB01C701B6010E940713F4
:101E1000882319F061E174E027C026013701E894B6
:101E200077F82FEF3FEF4FE75FE7C301B2010E9462
:101E3000071381110DC02FEF3FEF4FE75FE7C3019D
:101E4000B2010E94831018161CF465E174E00CC006
:101E50002FEF3FEF4FE75FE4C701B6010E944E123C
:101E60001816ACF469E174E0CE01DF91CF911F91B7
:101E70000F91FF90EF90DF90CF90BF90AF909F9029
:101E80008F907F906F905F904F900C94EE0D2FEF9E
:101E90003FEF4FE75FECC701B6010E94831087FD5B
:101EA000E1CF20E030E0A901C701B6010E94831014
:101EB00087FF0AC06DE2CE010E94060E8C01F7FA80
:101EC000F094F7F8F09402C000E010E0A12C60E07C
:101ED00070E080E09FE3AB1441F020E030E040E2AE
:101EE00051E40E948A10A394F6CF9B01AC01C70174
:101EF000B6010E94F70F6B017C010E94F7102B01C5
:101F00003C010E9423119B01AC01C701B6010E9454
:101F1000F60F6B017C012AE0B301A201CE010E9401
:101F2000330E080F191FBB2039F06EE171E0CE01AE
:101F30000E94EE0D080F191F7B2C772041F120E045
:101F400030E040E251E4C701B6010E9459126B0132
:101F50007C010E94F2104B01AA2497FCA094BA2C99
:101F60002AE030E0B501A401CE010E948C0E080FDA
:101F7000191FC501B4010E9425119B01AC01C701C5
:101F8000B6010E94F60F6B017C017A94D6CFC8018E
:101F9000DF91CF911F910F91FF90EF90DF90CF9045
:101FA000BF90AF909F908F907F906F905F904F9079
:101FB00008950C94EE0E0E94BF0A0E94CC00C4E665
:101FC000DCE00E94B9032097E1F30E94640CF9CF92
:101FD0009F939F7775D10F9000203AF49058A2EA12
:101FE0002AED3FE049E450E413D00DC25058BB271E
:101FF000AA270ED008C2D1D130F0D6D120F031F4CA
:102000009F3F11F41EF4A1C10EF4E095E7FB97C1C8
:10201000E92F1BD280F3BA1762077307840795076D
:1020200018F071F49EF533C20EF4E0950B2EBA2F22
:10203000A02D0B01B90190010C01CA01A0011124CE
:10204000FF27591B99F0593F50F4503E68F11A167A
:10205000F040A22F232F342F4427585FF3CF46950B
:1020600037952795A795F0405395C9F77EF41F162D
:10207000BA0B620B730B840BBAF09150A1F0FF0FF7
:10208000BB1F661F771F881FC2F70EC0BA0F621FE3
:10209000731F841F48F4879577956795B795F795D3
:1020A0009E3F08F0B3CF9395880F08F09927EE0F65
:1020B000979587950895DF93DD27B92FBF7740E87F
:1020C0005FE31616170648075B0710F4D92FEAD10D
:1020D0009F938F937F936F9397D2ECE7F0E038D183
:1020E00092D12F913F914F915F91EFD1DD2349F034
:1020F0009058A2EA2AED3FE049EC5FE3D0785D27F3
:1021000087DFDF9180C1F7D008F481E0089554D1D2
:10211000E3958AC10CD077C147D140F03ED130F071
:1021200021F45F3F19F00BC15111B2C10EC18DD125
:1021300098F39923C9F35523B1F3951B550BBB278E
:10214000AA2762177307840738F09F5F5F4F220F3B
:10215000331F441FAA1FA9F333D00E2E3AF0E0E834
:1021600030D091505040E695001CCAF729D0FE2F80
:1021700027D0660F771F881FBB1F26173707480712
:10218000AB07B0E809F0BB0B802DBF01FF279358C8
:102190005F4F2AF09E3F510568F0D1C079C15F3F83
:1021A000ECF3983EDCF3869577956795B795F795B0
:1021B0009F5FC9F7880F911D9695879597F90895A8
:1021C000E1E0660F771F881FBB1F62177307840744
:1021D000BA0720F0621B730B840BBA0BEE1F88F753
:1021E000E095089504D06894B11152C1089535D195
:1021F00088F09F5790F0B92F9927B751A0F0D1F0F0
:10220000660F771F881F991F1AF0BA95C9F712C079
:10221000B13081F03CD1B1E0089539C1672F782FFA
:102220008827B85F39F0B93FCCF3869577956795E5
:10223000B395D9F73EF490958095709561957F4F51
:102240008F4F9F4F0895E89409C097FB3EF49095F7
:102250008095709561957F4F8F4F9F4F9923A9F07F
:10226000F92F96E9BB279395F6958795779567950E
:10227000B795F111F8CFFAF4BB0F11F460FF1BC052
:102280006F5F7F4F8F4F9F4F16C0882311F096E9E5
:1022900011C0772321F09EE8872F762F05C0662393
:1022A00071F096E8862F70E060E02AF09A95660F4C
:1022B000771F881FDAF7880F9695879597F9089505
:1022C000DF93CF931F930F938B01EC01E9EAF0E0CA
:1022D0003FD099D09801AE018B01EC0160E070E035
:1022E00080E89FE383DE52D19801AE010F911F91E8
:1022F000CF91DF91EAC0990F0008550FAA0BE0E8D3
:10230000FEEF16161706E807F907C0F012161306B7
:10231000E407F50798F0621B730B840B950B39F4F7
:102320000A2661F0232B242B252B21F408950A265D
:1023300009F4A140A6958FEF811D811D089597F99D
:102340009F6780E870E060E008959FEF80EC08955B
:10235000DF93CF931F930F93FF92EF92DF927B0156
:102360008C01689405C0DA2EEF01AFD0FE01E8942D
:10237000A5912591359145915591AEF3EF0148DE38
:10238000FE019701A801DA9479F7DF90EF90FF90B2
:102390000F911F91CF91DF91089500240A94161692
:1023A000170618060906089500240A941216130643
:1023B000140605060895C9CF50D0E8F3E894E0E08C
:1023C000BB279F57F0F02AED3FE049EC06C0EE0F27
:1023D000BB0F661F771F881F28F0B23A620773078A
:1023E000840728F0B25A620B730B840BE3959A951D
:1023F00072F7803830F49A95BB0F661F771F881FDD
:10240000D2F790480AC1092E0394000C11F48823D6
:1024100052F0BB0F40F4BF2B11F460FF04C06F5F9C
:102420007F4F8F4F9F4F0895EF93E0FF06C0A2EAC2
:102430002AED3FE049EC5FEBEBDDE5DF0F90039425
:1024400001FC9058E1EDF0E0FBC057FD9058440FBF
:10245000551F59F05F3F71F04795880F97FB991F03
:1024600061F09F3F79F087950895121613061406C0
:10247000551FF2CF4695F1DF08C01616170618064D
:10248000991FF1CF86957105610508940895E89428
:10249000BB2766277727CB0197F908952CDF08F42F
:1024A0008FEF08959B01AC0160E070E080E89FE34E
:1024B00031CE0BD0A8CF71DF28F076DF18F095234E
:1024C00009F03DCF42CF1124E3CFBFDFA0F3959FAA
:1024D000D1F3950F50E0551F629FF001729FBB270B
:1024E000F00DB11D639FAA27F00DB11DAA1F649FB7
:1024F0006627B00DA11D661F829F2227B00DA11D6A
:10250000621F739FB00DA11D621F839FA00D611DEF
:10251000221F749F3327A00D611D231F849F600D10
:10252000211D822F762F6A2F11249F5750408AF049
:10253000E1F088234AF0EE0FFF1FBB1F661F771FD5
:10254000881F91505040A9F79E3F510570F0F7CE7B
:102550009FCF5F3FECF3983EDCF3869577956795C8
:10256000B795F795E7959F5FC1F7FE2B880F911DF3
:102570009695879597F908959F931EDF0F9007FC16
:10258000EE5F52CF11F40EF4E0CE45C066DFD0F31B
:102590009923D9F3CEF39F57550B87FF4AD00024D8
:1025A000A0E640EA900180585695979528F4805C03
:1025B000660F771F881F20F026173707480730F46B
:1025C000621B730B840B202931294A2BA695179483
:1025D0000794202531254A2758F7660F771F881F53
:1025E00020F026173707480730F4620B730B840B73
:1025F000200D311D411DA09581F7B901842F9158FF
:10260000880F9695879508959B01AC0152CF73DE94
:10261000880B990B08959F3F31F0915020F48795D6
:1026200077956795B795880F911D9695879597F93A
:10263000089591505040660F771F881FD2F7089574
:102640009F938F937F936F93FF93EF939B01AC01C5
:1026500030DFEF91FF917CDE2F913F914F915F91A1
:1026600028CFDB018F939F930E949413BF91AF916A
:10267000A29F800D911DA39F900DB29F900D1124DC
:102680000895991B79E004C0991F961708F0961BCE
:10269000881F7A95C9F780950895A1E21A2EAA1B82
:1026A000BB1BFD010DC0AA1FBB1FEE1FFF1FA21702
:1026B000B307E407F50720F0A21BB30BE40BF50BFF
:1026C000661F771F881F991F1A9469F76095709588
:1026D000809590959B01AC01BD01CF010895052E19
:1026E00097FB1EF400940E94861357FD07D00E94AA
:1026F0004D1307FC03D04EF40C948613509540956F
:10270000309521953F4F4F4F5F4F0895909580959D
:10271000709561957F4F8F4F9F4F0895EE0FFF1F6C
:102720000590F491E02D09940E949F13A59F900DB0
:10273000B49F900DA49F800D911D11240895A29F18
:10274000B001B39FC001A39F700D811D1124911D85
:10275000B29F700D811D1124911D0895F894FFCF33
:102760000100000001000100642D64696E69746954
:102770006174696E6720736572766F732E2E2E00FA
:10278000696E697469617465640052656164790099
:10279000536572766F4C3D2000536572766F523DE3
:1027A0002000536572766F526F743D20007374720F
:1027B00065746368203130636D0075702035636D1A
:1027C000006261636B20746F206F726967696E00CD
:1027D0002020524556455253452020000909737761
:1027E0006565704C0009097377656570526F7400F8
:1027F000090973776565705200090974657374007F
:1028000009097265736574506F7300090972656117
:102810006400676F696E6720636C6F636B776973C1
:102820006500676F696E6720636F756E74657263AC
:102830006C6F636B77697365006E657720534552E3
:10284000564F5F4C20616E676C65203D20006E65C1
:102850007720534552564F5F524F5420616E676C3C
:1028600065203D20006E657720534552564F5F52DC
:1028700020616E676C65203D20006368616E67654E
:102880006420746F20636F756E746572636C6F6320
:102890006B77697365006368616E67656420746F48
:1028A00020636C6F636B77697365006D6520736F70
:1028B00020736F7272792C204920646F6E27742008
:1028C000756E6465727374616E64207468697320D8
:1028D000636F6D6D616E64202100436F6E74726F63
:1028E0006C733A0031202D207377656570206C651C
:1028F0006674206D6F746F720032202D20737765BF
:1029000065702062617365206D6F746F7200332093
:102910002D20737765657020726973676874206D08
:102920006F746F720034202D207465737420667587
:102930006E6374696F6E0035202D20676F206261B1
:10294000636B20746F20696E697469616C20706FAD
:10295000730036202D207265616420637572726584
:102960006E7420616E676C65730037202D20696E70
:10297000637265617365206C656674206D6F746F3A
:102980007220616E676C652062792031C2B00038B8
:10299000202D20696E63726561736520726F7461AA
:1029A00074696F6E206D6F746F7220616E676C65F5
:1029B0002062792031C2B00039202D20696E637207
:1029C00065617365207269676874206D6F746F72DA
:1029D00020616E676C652062792031C2B0003020C2
:1029E0002D206368616E6765206F7269656E746122
:1029F00074696F6E20636C6F636B77697365202FEA
:102A000020636F756E746572636C6F636B77697347
:102A10006500616E676C654C3D2000616E676C659A
:102A2000523D2000616E676C65526F743D200063FB
:102A3000757272656E7420706F736974696F6E3A27
:102A40002028002C200029006E6F20736572766F9D
:102A500020776974682074686973206E616D652ED3
:102A60000000000000EC0BC60D920BBF0BA40BE1A5
:0E2A70000B6E616E00696E66006F7666000088
:00000001FF
